{"abi":[{"type":"constructor","inputs":[{"name":"coreBridge","type":"address","internalType":"address"},{"name":"executor","type":"address","internalType":"address"}],"stateMutability":"nonpayable"},{"type":"function","name":"DEFAULT_ADMIN_ROLE","inputs":[],"outputs":[{"name":"","type":"bytes32","internalType":"bytes32"}],"stateMutability":"view"},{"type":"function","name":"PEER_ADMIN_ROLE","inputs":[],"outputs":[{"name":"","type":"bytes32","internalType":"bytes32"}],"stateMutability":"view"},{"type":"function","name":"executeVAAv1","inputs":[{"name":"multiSigVaa","type":"bytes","internalType":"bytes"}],"outputs":[],"stateMutability":"payable"},{"type":"function","name":"getRoleAdmin","inputs":[{"name":"role","type":"bytes32","internalType":"bytes32"}],"outputs":[{"name":"","type":"bytes32","internalType":"bytes32"}],"stateMutability":"view"},{"type":"function","name":"grantRole","inputs":[{"name":"role","type":"bytes32","internalType":"bytes32"},{"name":"account","type":"address","internalType":"address"}],"outputs":[],"stateMutability":"nonpayable"},{"type":"function","name":"hasRole","inputs":[{"name":"role","type":"bytes32","internalType":"bytes32"},{"name":"account","type":"address","internalType":"address"}],"outputs":[{"name":"","type":"bool","internalType":"bool"}],"stateMutability":"view"},{"type":"function","name":"peers","inputs":[{"name":"","type":"uint16","internalType":"uint16"}],"outputs":[{"name":"","type":"bytes32","internalType":"bytes32"}],"stateMutability":"view"},{"type":"function","name":"renounceRole","inputs":[{"name":"role","type":"bytes32","internalType":"bytes32"},{"name":"callerConfirmation","type":"address","internalType":"address"}],"outputs":[],"stateMutability":"nonpayable"},{"type":"function","name":"revokeRole","inputs":[{"name":"role","type":"bytes32","internalType":"bytes32"},{"name":"account","type":"address","internalType":"address"}],"outputs":[],"stateMutability":"nonpayable"},{"type":"function","name":"sendGreeting","inputs":[{"name":"greeting","type":"string","internalType":"string"},{"name":"targetChain","type":"uint16","internalType":"uint16"},{"name":"gasLimit","type":"uint128","internalType":"uint128"},{"name":"totalCost","type":"uint256","internalType":"uint256"},{"name":"signedQuote","type":"bytes","internalType":"bytes"}],"outputs":[{"name":"sequence","type":"uint64","internalType":"uint64"}],"stateMutability":"payable"},{"type":"function","name":"setPeer","inputs":[{"name":"chainId","type":"uint16","internalType":"uint16"},{"name":"peerAddress","type":"bytes32","internalType":"bytes32"}],"outputs":[],"stateMutability":"nonpayable"},{"type":"function","name":"supportsInterface","inputs":[{"name":"interfaceId","type":"bytes4","internalType":"bytes4"}],"outputs":[{"name":"","type":"bool","internalType":"bool"}],"stateMutability":"view"},{"type":"event","name":"GreetingReceived","inputs":[{"name":"greeting","type":"string","indexed":false,"internalType":"string"},{"name":"senderChain","type":"uint16","indexed":false,"internalType":"uint16"},{"name":"sender","type":"bytes32","indexed":false,"internalType":"bytes32"}],"anonymous":false},{"type":"event","name":"GreetingSent","inputs":[{"name":"greeting","type":"string","indexed":false,"internalType":"string"},{"name":"targetChain","type":"uint16","indexed":false,"internalType":"uint16"},{"name":"sequence","type":"uint64","indexed":false,"internalType":"uint64"}],"anonymous":false},{"type":"event","name":"RoleAdminChanged","inputs":[{"name":"role","type":"bytes32","indexed":true,"internalType":"bytes32"},{"name":"previousAdminRole","type":"bytes32","indexed":true,"internalType":"bytes32"},{"name":"newAdminRole","type":"bytes32","indexed":true,"internalType":"bytes32"}],"anonymous":false},{"type":"event","name":"RoleGranted","inputs":[{"name":"role","type":"bytes32","indexed":true,"internalType":"bytes32"},{"name":"account","type":"address","indexed":true,"internalType":"address"},{"name":"sender","type":"address","indexed":true,"internalType":"address"}],"anonymous":false},{"type":"event","name":"RoleRevoked","inputs":[{"name":"role","type":"bytes32","indexed":true,"internalType":"bytes32"},{"name":"account","type":"address","indexed":true,"internalType":"address"},{"name":"sender","type":"address","indexed":true,"internalType":"address"}],"anonymous":false},{"type":"error","name":"AccessControlBadConfirmation","inputs":[]},{"type":"error","name":"AccessControlUnauthorizedAccount","inputs":[{"name":"account","type":"address","internalType":"address"},{"name":"neededRole","type":"bytes32","internalType":"bytes32"}]},{"type":"error","name":"AlreadyProcessed","inputs":[]},{"type":"error","name":"InvalidPeer","inputs":[]},{"type":"error","name":"NoValueAllowed","inputs":[]},{"type":"error","name":"OutOfBounds","inputs":[{"name":"offset","type":"uint256","internalType":"uint256"},{"name":"length","type":"uint256","internalType":"uint256"}]},{"type":"error","name":"UnexpectedVersion","inputs":[{"name":"version","type":"uint8","internalType":"uint8"}]},{"type":"error","name":"VerificationFailed","inputs":[]}],"bytecode":{"object":"0x60e0806040523462000138576040816200122580380380916200002382856200013d565b83398101031262000138576020816200004b826200004360049562000177565b920162000177565b6001600160a01b039182166080819052911660a052604051634d4502c960e11b815292839182905afa9081156200012c57600091620000e1575b5060c05262000094336200018c565b50620000a0336200020c565b50604051610f569081620002af82396080518181816102240152818161029a0152610680015260a05181818161039f0152610441015260c051816103440152f35b6020813d60201162000123575b81620000fd602093836200013d565b810103126200011f57519061ffff821682036200011c57503862000085565b80fd5b5080fd5b3d9150620000ee565b6040513d6000823e3d90fd5b600080fd5b601f909101601f19168101906001600160401b038211908210176200016157604052565b634e487b7160e01b600052604160045260246000fd5b51906001600160a01b03821682036200013857565b6001600160a01b031660008181527fad3228b676f7d3cd4284a5443f17f1962b36e491b30a40b2405849e597ba5fb5602052604081205490919060ff166200020857818052816020526040822081835260205260408220600160ff198254161790553391600080516020620012058339815191528180a4600190565b5090565b6001600160a01b031660008181527fa5f223e91bd8b1e14b21b0b229e8400193a3f812ed55b1228e94f33faff06b1960205260408120549091907f0ef588b9ef5bc0107c772d899a25e3e26ddfa66eee6de48e282573070f7383699060ff16620002a957808352826020526040832082845260205260408320600160ff1982541617905560008051602062001205833981519152339380a4600190565b50509056fe608080604052600436101561001357600080fd5b60003560e01c90816301ffc9a714610b4c57508063248a9ca314610b1d5780632f2ff15d14610aec57806332cf4cd514610a4157806336568abe14610a0857806353c6f0dc1461064e5780636c1f8a0f146106135780638ae43bad1461016c57806391d148541461012c578063a217fddf14610110578063a765cd12146100db5763d547741f146100a357600080fd5b346100d6576100d46100b436610b9f565b908060005260006020526100cf600160406000200154610ca6565b610d4a565b005b600080fd5b346100d65760203660031901126100d65761ffff6100f7610bc5565b1660005260016020526020604060002054604051908152f35b346100d65760003660031901126100d657602060405160008152f35b346100d65761013a36610b9f565b90600052600060205260406000209060018060a01b0316600052602052602060ff604060002054166040519015158152f35b60a03660031901126100d6576004356001600160401b0381116100d657610197903690600401610bd6565b6024359161ffff831683036100d6576001600160801b0360443516604435036100d6576084356001600160401b0381116100d6576101d9903690600401610bd6565b6101e7939193368385610c3f565b936040518060208101106001600160401b0360208301111761051d57602081810160409081526000835251631a90a21960e01b81529690876004817f00000000000000000000000000000000000000000000000000000000000000006001600160a01b03165afa968715610533576000976105de575b5095602061028e97604051809981926358cd21bf60e11b835260006004840152606060248401526064830190610de2565b60c860448301520381847f00000000000000000000000000000000000000000000000000000000000000006001600160a01b03165af19687156105335760009761059a575b506040516020810192600160f81b84526001600160801b031960443560801b166021830152600060318301526021825261030c82610c03565b81938151610551575b50505061ffff8816600052600160205260406000205491821561053f57604051634552563160e01b60208201527f000000000000000000000000000000000000000000000000000000000000000060f01b6001600160f01b031916602482015230602682015260c089901b6001600160c01b0319166046820152602e81529361039d85610c03565b7f00000000000000000000000000000000000000000000000000000000000000006001600160a01b03163b156100d65761043961ffff926104276000976104158e956040519b8c9a8b998a9963c513d43760e01b8b521660048a0152602489015233604489015260c0606489015260c4880191610c85565b85810360031901608487015290610de2565b8381036003190160a485015290610de2565b0391606435037f00000000000000000000000000000000000000000000000000000000000000006001600160a01b03165af18015610533576104e0575b50907f99f0381db7b8e265a14ca7ba78b84c9ce74af5c810fdf750a829ae4e3ec7f9109160209461ffff6104b7604051948594606086526060860191610c85565b9116868301526001600160401b03851660408301520390a16001600160401b0360405191168152f35b91906001600160401b03831161051d57604092909252907f99f0381db7b8e265a14ca7ba78b84c9ce74af5c810fdf750a829ae4e3ec7f910610476565b634e487b7160e01b600052604160045260246000fd5b6040513d6000823e3d90fd5b6040516316ecbaf360e21b8152600490fd5b610571939450916020916105919360405195869351809286860190610dbf565b820161058582518093868085019101610dbf565b01038084520182610c1e565b90888080610315565b9096506020813d6020116105d6575b816105b660209383610c1e565b810103126100d657516001600160401b03811681036100d65795886102d3565b3d91506105a9565b96506020873d60201161060b575b816105f960209383610c1e565b810103126100d657955195602061025d565b3d91506105ec565b346100d65760003660031901126100d65760206040517f0ef588b9ef5bc0107c772d899a25e3e26ddfa66eee6de48e282573070f7383698152f35b60203660031901126100d6576004356001600160401b0381116100d657610679903690600401610bd6565b346100d6577f00000000000000000000000000000000000000000000000000000000000000006001600160a01b0316823560f81c60001981016109f05750604051637ca8cbad60e11b808252600185013560e01c6004830152600082602481865afa918215610533576000926109d2575b506020820151919263ffffffff9283168015154290911016610910575b505050518051906006916001600382821b0401600586013560f81c106108fe5761073f6042600587013560f81c026006018587610ef0565b90816040519182372060005260206000209160016000946000915b600589013560f81c831061086857604260058a013560f81c02808a01600e81013560f01c916030820135916010013590610798906039018c8e610ef0565b9390816000526001602052826040600020540361053f57816000527f451e1cdd759c032e4b76c22f1e318ddd04a5b1d6ffcbd3f32c8e0770c6ecdf59836020600020181860005260206000208460c81c0190600160ff83549660c01c161b8517809514610856577f730ddc6eb34c4995de748b456c5e5f5cf2ba470f960f42c7c112a3720e588895956108469561083193553691610c3f565b91604051938493606085526060850190610de2565b91602084015260408301520390a1005b604051632bf773b360e11b8152600490fd5b6042828a019201966020600060806040518a815260ff601b604189013560f81c011684820152600187013560408201526021870135606082015282805260015afa156105335760005160018060a01b036020611fe0863560f31c1688010151169060018060a01b031614159186843560f81c101591843560f81c11171517176108fe573560f81c9460019190910190600061075a565b60405163439cc0cd60e01b8152600490fd5b604051631cfe795160e01b8152929350909190602082600481845afa9182156105335760009261098f575b50600092602491604051958694859384521660048301525afa9081156105335760009161096c575b50838080610707565b61098991503d806000833e6109818183610c1e565b810190610e18565b83610963565b9091506020813d6020116109ca575b816109ab60209383610c1e565b810103126100d6576000926109c1602492610e07565b9291509261093b565b3d915061099e565b602092506109ea903d806000833e6109818183610c1e565b916106ea565b602490604051906335f6bc6b60e11b82526004820152fd5b346100d657610a1636610b9f565b336001600160a01b03821603610a2f576100d491610d4a565b60405163334bd91960e11b8152600490fd5b346100d65760403660031901126100d657610a5a610bc5565b3360009081527fa5f223e91bd8b1e14b21b0b229e8400193a3f812ed55b1228e94f33faff06b1960205260409020547f0ef588b9ef5bc0107c772d899a25e3e26ddfa66eee6de48e282573070f7383699060ff1615610ace5761ffff82166000526001602052602435604060002055600080f35b6044906040519063e2517d3f60e01b82523360048301526024820152fd5b346100d6576100d4610afd36610b9f565b90806000526000602052610b18600160406000200154610ca6565b610ccc565b346100d65760203660031901126100d65760043560005260006020526020600160406000200154604051908152f35b346100d65760203660031901126100d6576004359063ffffffff60e01b82168092036100d657602091637965db0b60e01b8114908115610b8e575b5015158152f35b6301ffc9a760e01b14905083610b87565b60409060031901126100d657600435906024356001600160a01b03811681036100d65790565b6004359061ffff821682036100d657565b9181601f840112156100d6578235916001600160401b0383116100d657602083818601950101116100d657565b606081019081106001600160401b0382111761051d57604052565b90601f801991011681019081106001600160401b0382111761051d57604052565b9291926001600160401b03821161051d5760405191610c68601f8201601f191660200184610c1e565b8294818452818301116100d6578281602093846000960137010152565b908060209392818452848401376000828201840152601f01601f1916010190565b80600052600060205260406000203360005260205260ff6040600020541615610ace5750565b9060009180835282602052604083209160018060a01b03169182845260205260ff60408420541615600014610d4557808352826020526040832082845260205260408320600160ff198254161790557f2f8788117e7eff1d82e926ec794901d17c78024a50270940304540a733656f0d339380a4600190565b505090565b9060009180835282602052604083209160018060a01b03169182845260205260ff604084205416600014610d455780835282602052604083208284526020526040832060ff1981541690557ff6391f5c32d9c69d2a47ea670b442974b53935d1edc7fd64eb21e047a839171b339380a4600190565b60005b838110610dd25750506000910152565b8181015183820152602001610dc2565b90602091610dfb81518092818552858086019101610dbf565b601f01601f1916010190565b519063ffffffff821682036100d657565b60209081818403126100d65780516001600160401b03918282116100d65701906040828503126100d6576040519360408501918583108184111761051d578260405283518181116100d657840182601f820112156100d657805191821161051d578160051b91610e8a87840186610c1e565b84528560608801928201019283116100d65791858094929593015b818110610ec2575050610ebb9350855201610e07565b9082015290565b8051939592945090929091906001600160a01b03811681036100d65781528501938593909290918401610ea5565b92919092838211610f02578101920390565b6044828560405191633d71388b60e21b835260048301526024820152fdfea2646970667358221220bb03e34b477bd193e7b77d35b40233e9c81ec1e49d73e71a3a008afe8c432f9964736f6c634300081600332f8788117e7eff1d82e926ec794901d17c78024a50270940304540a733656f0d","linkReferences":{}},"methodIdentifiers":{"DEFAULT_ADMIN_ROLE()":"a217fddf","PEER_ADMIN_ROLE()":"6c1f8a0f","executeVAAv1(bytes)":"53c6f0dc","getRoleAdmin(bytes32)":"248a9ca3","grantRole(bytes32,address)":"2f2ff15d","hasRole(bytes32,address)":"91d14854","peers(uint16)":"a765cd12","renounceRole(bytes32,address)":"36568abe","revokeRole(bytes32,address)":"d547741f","sendGreeting(string,uint16,uint128,uint256,bytes)":"8ae43bad","setPeer(uint16,bytes32)":"32cf4cd5","supportsInterface(bytes4)":"01ffc9a7"},"id":42}